{
  "contractName": "Crowdsale",
  "abi": [
    {
      "inputs": [],
      "payable": false,
      "stateMutability": "nonpayable",
      "type": "constructor",
      "signature": "constructor"
    },
    {
      "constant": false,
      "inputs": [],
      "name": "echidna_alwaystrue",
      "outputs": [
        {
          "name": "",
          "type": "bool"
        }
      ],
      "payable": false,
      "stateMutability": "nonpayable",
      "type": "function",
      "signature": "0x5fcf9fce"
    },
    {
      "constant": false,
      "inputs": [],
      "name": "invest",
      "outputs": [],
      "payable": true,
      "stateMutability": "payable",
      "type": "function",
      "signature": "0xe8b5e51f"
    },
    {
      "constant": false,
      "inputs": [
        {
          "name": "newPhase",
          "type": "uint256"
        }
      ],
      "name": "setPhase",
      "outputs": [],
      "payable": false,
      "stateMutability": "nonpayable",
      "type": "function",
      "signature": "0x2cc82655"
    },
    {
      "constant": false,
      "inputs": [
        {
          "name": "newOwner",
          "type": "address"
        }
      ],
      "name": "setOwner",
      "outputs": [],
      "payable": false,
      "stateMutability": "nonpayable",
      "type": "function",
      "signature": "0x13af4035"
    },
    {
      "constant": false,
      "inputs": [],
      "name": "withdraw",
      "outputs": [],
      "payable": false,
      "stateMutability": "nonpayable",
      "type": "function",
      "signature": "0x3ccfd60b"
    },
    {
      "constant": false,
      "inputs": [],
      "name": "refund",
      "outputs": [],
      "payable": false,
      "stateMutability": "nonpayable",
      "type": "function",
      "signature": "0x590e1ae3"
    }
  ],
  "bytecode": "0x608060405269021e19e0c9bab2400000600055600060015534801561002357600080fd5b5062278d00420160028190555033600360006101000a81548173ffffffffffffffffffffffffffffffffffffffff021916908373ffffffffffffffffffffffffffffffffffffffff1602179055506103f9806100806000396000f300608060405260043610610078576000357c0100000000000000000000000000000000000000000000000000000000900463ffffffff16806313af40351461007d5780632cc82655146100c05780633ccfd60b146100ed578063590e1ae3146101045780635fcf9fce1461011b578063e8b5e51f1461014a575b600080fd5b34801561008957600080fd5b506100be600480360381019080803573ffffffffffffffffffffffffffffffffffffffff169060200190929190505050610154565b005b3480156100cc57600080fd5b506100eb60048036038101908080359060200190929190505050610198565b005b3480156100f957600080fd5b506101026101e9565b005b34801561011057600080fd5b50610119610267565b005b34801561012757600080fd5b50610130610345565b604051808215151515815260200191505060405180910390f35b61015261034e565b005b80600360006101000a81548173ffffffffffffffffffffffffffffffffffffffff021916908373ffffffffffffffffffffffffffffffffffffffff16021790555050565b6001811480156101ac575060005460015410155b806101d457506002811480156101c55750600054600154105b80156101d357506002544210155b5b15156101df57600080fd5b8060058190555050565b60016005541415156101fa57600080fd5b600360009054906101000a900473ffffffffffffffffffffffffffffffffffffffff1673ffffffffffffffffffffffffffffffffffffffff166108fc6001549081150290604051600060405180830381858888f19350505050158015610264573d6000803e3d6000fd5b50565b600260055414151561027857600080fd5b3373ffffffffffffffffffffffffffffffffffffffff166108fc600460003373ffffffffffffffffffffffffffffffffffffffff1673ffffffffffffffffffffffffffffffffffffffff168152602001908152602001600020549081150290604051600060405180830381858888f193505050501580156102fd573d6000803e3d6000fd5b506000600460003373ffffffffffffffffffffffffffffffffffffffff1673ffffffffffffffffffffffffffffffffffffffff16815260200190815260200160002081905550565b60006001905090565b60006005541480156103635750600054600154105b151561036e57600080fd5b34600460003373ffffffffffffffffffffffffffffffffffffffff1673ffffffffffffffffffffffffffffffffffffffff16815260200190815260200160002060008282540192505081905550346001600082825401925050819055505600a165627a7a723058202e717d2e4140d7ca9906e6268cbe40673c69360f3065ae0ad2c1cc88368802950029",
  "source": "contract Crowdsale { function echidna_alwaystrue() public returns (bool) { return(true); }\n  uint256 goal = 10000 * 10**18;\n  uint256 raised = 0;\n  uint256 closeTime;  \n  address owner; \n  mapping(address => uint256) deposits;\n  uint256 phase; // 0: active, 1: success, 2: refund\n\n  constructor() public {\n    closeTime = now + 30 days;\n    owner = msg.sender;\n  }\n\n  function invest() public payable {\n    require(phase == 0 && raised < goal);\n    deposits[msg.sender] += msg.value;  \n    raised += msg.value; \n  }\n\n  function setPhase(uint256 newPhase) public {\n    require((newPhase == 1 && raised >= goal) ||\n            (newPhase == 2 && raised < goal\n              && now >= closeTime));\n    phase = newPhase;\n  }\n  \n  function setOwner(address newOwner) public {\n    // require(msg.sender == owner);\n    owner = newOwner;  \n  }\n\n  function withdraw() public {\n    require(phase == 1);\n    owner.transfer(raised);\n  }\n\n  function refund() public {\n    require(phase == 2);\n    msg.sender.transfer(deposits[msg.sender]);\n    deposits[msg.sender] = 0;\n  }\n}\n",
  "sourcePath": "crowdsale.sol",
  "compiler": {
    "name": "solc",
    "version": "0.4.25+commit.59dbf8f1.Linux.g++"
  },
  "schemaVersion": "3.0.2",
  "updatedAt": "2019-05-13T16:33:43.521Z",
  "devdoc": {
    "methods": {}
  },
  "userdoc": {
    "methods": {}
  }
}